:1000000000000320D1010000DD770000957700009B
:1000100095770000957700009577000095770000B0
:10002000957700009577000095770000DD77000058
:10003000DD77000095770000DD7700008577000010
:10004000DD770000DD770000DD770000DD77000060
:10005000DD770000DD770000DD770000DD77000050
:10006000DD770000DD770000DD770000DD77000040
:10007000DD770000DD770000DD770000DD77000030
:10008000DD770000DD770000DD770000DD77000020
:10009000DD770000DD770000DD770000DD77000010
:1000A0008573000091730000DD770000DD770000AC
:1000B000DD770000DD770000DD770000AD83000014
:1000C000DD770000CD9E0000DD7700004DA400002C
:1000D000DD77000065AA0000DD770000DD77000015
:1000E000DD770000DD770000DD770000DD770000C0
:1000F000DD770000DD770000DD770000DD770000B0
:10010000DD770000DD770000DD770000DD7700009F
:10011000DD77000031860000DD770000DD7700002C
:10012000DD770000DD770000DD770000DD7700007F
:10013000DD770000DD770000DD770000DD7700006F
:10014000DD770000DD770000B1AF0000DD77000053
:10015000DD770000DD770000DD770000DD7700004F
:10016000DD770000DD7700009D730000DD77000083
:10017000DD770000DD770000DD770000DD7700002F
:10018000DD770000DD770000DD770000DD7700001F
:10019000DD770000DD770000F1B50000DD770000BD
:1001A000DD770000DD770000DD770000A973000037
:1001B000DD770000DD770000DD770000DD770000EF
:1001C000DD770000DD770000DD770000DD770000DF
:1001D0005C4B4CF2205210B51A804DF628121A8052
:1001E00000BF00BF07F0FEFA574B4FF030621A60B5
:1001F000564A9A60564ADA60564B4FF470021A60BB
:10020000554B564A1A60564A136813F4807304D14A
:1002100054490B604FF4A8531360534B1A781107DD
:1002200003D51A7842F008021A70504B5049AA229E
:100230001A70504A504B8B4204D252F8040F43F8C4
:10024000040BF8E74D4B4E4900228B4202D243F893
:10025000042BFAE74B494C4A002352F8230041F89B
:1002600023000133742BF8D1484B494A802103F80D
:10027000011B9342FBD1474B424A1A60464B8A22EC
:100280001A70A3F5805324225A70A0221A709A790A
:100290009207FCD59A79D406FCD4404A937903F0AE
:1002A0000C03082BFAD13E4B60221A7002331A78E5
:1002B000802AFCD1394B01221A715D225A719A7938
:1002C0009006FCD59979354A4906FBD5354B364918
:1002D00019600021596020231370937903F00C03F7
:1002E0000C2BFAD1314B324A1A60324B324A1A6027
:1002F00000225A60072243F8042C304AC3F80C2D20
:1003000062B607F01BFC174B1B68DA0705D52C48B3
:1003100007F072FB2B4B2C4A1A602C4B1B785B06A8
:1003200009D5284C284B22689A4204D1244807F06A
:1003300063FB002323600DF0ADFE07F059FA09F0CE
:100340008DF9FEE70E20054030800440823F040016
:100350000100002B88ED00E0002008E0030000858C
:1003600010D0034014D0034002D0074000E0074003
:10037000801BFF1F0C5201003007FF1F801BFF1F57
:10038000B43AFF1F0002FF1F0000000000E400E07D
:1003900064E400E008ED00E0005006400040064044
:1003A00001E007404480044000000602048004404D
:1003B000C010070014E000E01FBF02000000202072
:1003C000F3A0D45A1CE00340A5C3945A00F00740A0
:1003D000FFFFFFFFFFFFFFFFFFFFFFFFFFFFFFFF2D
:1003E000FFFFFFFFFFFFFFFFFFFFFFFFFFFFFFFF1D
:1003F000FFFFFFFFFFFFFFFFFFFFFFFFFFFFFFFF0D
:10040000FFFFFFFFFFFFFFFFFFFFFFFFDEF9FFFF23
:1004100010B5054C237833B9044B13B10448AFF33E
:1004200000800123237010BD801BFF1F000000000F
:1004300008520100084B10B51BB108490848AFF33A
:1004400000800848036803B910BD074B002BFBD0A0
:10045000BDE81040184700BF00000000841BFF1FCC
:1004600008520100801BFF1F00000000F8B50E4677
:10047000074602F07DFA054602F06AFA044602F0E9
:1004800057FA6401C0B204F4FF54ADB2A5F2BC75D2
:10049000044344EA45243C8002F01AFA054602F07F
:1004A00027FA044602F034FAED02640105F4FF2550
:1004B00004F4FF542C43C0F3460004433480F8BDD9
:1004C00038B5044608460D460EF0BAFE23680246CB
:1004D00029465B68204698470546204608F0E0FF1D
:1004E000284438BDFFFFFFFF2DE9F0432DED028BBF
:1004F00091B080460EF0A4FE0C2834D8C0F10D0057
:10050000032894BF0446042422462B4902A80EF077
:10051000D7FB414604A80EF021FE284904A80FF09D
:100520001DFF2649074600200FF018FF064620460B
:100530000DF0E8F941EC180B00244FF00109B0EE82
:10054000481AF0EE681A9FED1A0B0BF05DFD53ECA4
:10055000102B2046CDE900230DF0D4F9DDE900236E
:100560000DF0A8FC20B911B0BDEC028BBDE8F08302
:10057000224602A90CA8B9F1000FF4D00EF0A0FB9E
:10058000394608A80EF0C2FB0CA90EF0BFFB31469D
:100590000EF0E4FD08A90A4803F07CFD054608B109
:1005A0000134CCE708A940460EF0D8FDA946F7E78C
:1005B0000000000000002440004501000845010043
:1005C000742FFF1FF8B5194C2378DBB101221849AD
:1005D000184805F093FB28B101232370164B3122F4
:1005E0001A71F8BD02461249124805F087FB00282F
:1005F00014BF0123002323700F4B14BF312230227C
:100600001A71F8BD0A4DFE262E7003F03BFE074618
:1006100003F026FE002F0CBF01230023A8702370D7
:10062000D4D13146054803F015FCCFE7442CFF1F19
:10063000502FFF1FBC1BFF1FE02CFF1F742FFF1F3D
:10064000664B2DE9F04107CB654C664FC4F8172087
:10065000312330258EB0C4F80F00C4F813100E20DB
:1006600000212571A572E57225736371A371E37191
:100670002372637207F0E6F901210D2007F0E2F919
:10068000594A5A4910685A4D0B783BB12B789B0751
:1006900004D013683E689B1B182B04D813681B1AE0
:1006A000B3F57A7FF0D949F27C2007F055FB4FF47F
:1006B000FA7007F0F1F931232373FFF783FF4D4BF5
:1006C0004D4F5E7BD3F81080304605F0B5FD002419
:1006D0000125314622460190039740462346049562
:1006E0000294009405F024FF444B5E7BD3F8108005
:1006F000304605F0A1FD3146039701902346404660
:10070000224604950294009405F012FF3C483D4AAD
:100710003D4990ED006AD2ED006A3C4B91ED007AC4
:100720003B4F3C483C49D3ED007AD7F800E03B4BC7
:10073000076808783A4A3B4E12683668DA60BCEEC1
:10074000C66AFCEEE66A16EE101ABCEEC77A19818C
:1007500016EE901A1E615981FCEEE77A324B334A4D
:10076000334EC3F80CE017EE101A198117EE901AE9
:10077000598102F500611F61147082F800483160F0
:1007800010B90EB0BDE8F0812B4606A8294A2A49C7
:1007900003F00CFC0EAA2948089B12F8144D9DF892
:1007A0001C1083600473017100F10D031A3012F8FC
:1007B000011F03F8011B8342204CF8D10D9BE3611C
:1007C00006A803F08DFA204603F09CFA0028D8D042
:1007D0001B4B01221A700EB0BDE8F0810C450100E0
:1007E000E02CFF1FAC3AFF1F6C32FF1F6837FF1F62
:1007F0008037FF1F2832FF1FA08601001432FF1F21
:100800005407FF1F4807FF1F4C07FF1F4007FF1F2C
:10081000E81BFF1F5007FF1F442CFF1F9C1BFF1FDF
:100820003407FF1F3C07FF1FA02CFF1F141CFF1FD6
:10083000582CFF1F18450100742FFF1F5C2CFF1F51
:10084000532FFF1FFFFFFFFF2DE9F04FDFF8A8A296
:100850009AF80730312BADF60C0D00F077819AF83D
:100860000530A54C312B00F096819AF80630A24C49
:10087000312B00F0DD81DAE970230024002501210D
:100880009D48DFF8B482DFF8B4B2DFF8B492CAE969
:100890004C23CAE9504502F0CBF90121964802F0F9
:1008A00053FF0121944802F0C7FF0121924802F052
:1008B000D3FCDAE9662301218F48CAE96A2302F0F2
:1008C000ABFD01218C4802F0C7FD8C4B0022C8E92A
:1008D0000023DBE9004513E0CDE9004532463B4605
:1008E000DDE900010DF09EF904460D460022D8E92D
:1008F0000001824BCBE900450CF0B8FEC8E90001CD
:1009000079A3D3E90023204629460DF0F1FA00220D
:100910007B4B28B9D8E900010DF0CCFA002856D05D
:100920000121754802F084F90121734802F00CFF9F
:100930000221714802F080FF01216F4802F08CFC17
:1009400001216D4802F0D4FC01216B4802F0E4FC67
:100950000121694802F060FDDAE96A230121664855
:10096000C9E9002302F078FD0121634802F060F933
:100970000121614802F0E8FE02215F4802F05CFFBD
:1009800001215D4802F0C8FC01215B4802F044FDF2
:100990000121594802F060FDDAE96A45D9E90067AA
:1009A000DFF8A0E12046CEE90045294632463B4625
:1009B0000CF05AFE0022002304460D460DF098FA72
:1009C000002889D105F100430094019386E70121B5
:1009D0004948DFF874B14B4F02F082FD44A3D3E9DC
:1009E000002301214448CAE9402302F00FFFDBF84D
:1009F0000030454A934204BF134603F50065434B5C
:100A000018BF414D93E8030028602971A7F11D002C
:100A100002F056FF3E4B07F11B06B3F8008000249E
:100A200004E00134182C06F1080627D028460EF001
:100A300007FC17F8013F25F80080312BF1D10DF1AB
:100A40000809A31F4846112B40D8DFE803F03933CB
:100A5000333333393939333F333333332D09334566
:100A6000DAE938232B490EF02BF9494628460134A0
:100A70000EF072F9182C06F10806D7D1DBF8003019
:100A8000214A25482549934206BF134603F50063D2
:100A90001D4B234ACBF80030002303700B701370FA
:100AA0000DF60C0DBDE8F08FDAE936231D490EF086
:100AB00007F9DAE7D6E900231B490EF001F9D4E77C
:100AC000D6E9002319490EF0FBF8CEE7D6E900235A
:100AD00017490EF0F5F8C8E7DAE93C2315490EF09E
:100AE000EFF8C2E7AFF30080000000A09999A93F9A
:100AF000000000E04D62803FE02CFF1F0000F03F4F
:100B000000002440FD2CFF1F141CFF1F2445010082
:100B100068450100544501003807FF1F3907FF1FD2
:100B20005C07FF1F4C450100344501003C450100B6
:100B30002C45010044450100081CFF1FB82CFF1F75
:100B4000182CFF1FD82CFF1F582CFF1F0E2006F05B
:100B50009BFD0CF0D7FE65A3D3E90023CAE94E0143
:100B60000CF036FF0022584B584C0CF07DFD002253
:100B7000574B0DF057F80022564B0CF077FD50A361
:100B8000D3E900230CF072FD9AF80530312BCAE945
:100B900070017FF46AAE504D284602F015FF298996
:100BA000AB88D5ED036A95ED047A6A895B1A07EE86
:100BB000903A37EE667AF8EEE77A521A67EE877A5D
:100BC00007EE102AB8EEC77A87EE876A76EE267AA5
:100BD00017EE900A0CF0A8FE41EC100B0121204604
:100BE00002F050FEA88884ED520B0CF07BFE237AB5
:100BF000312BC4E954017FF438AEED88DFED376A5C
:100C0000DFED377A9FED377A06EE105AB8EE466A76
:100C1000E6EE267A77EE877A17EE900A0CF084FEDD
:100C2000C4E95C0128460CF05DFEC4E960011CE6E5
:100C30002D4E304602F0C8FEB58828460CF052FE14
:100C40003289D6ED036A96ED047A7389AD1A07EE00
:100C5000905A37EE667AF8EEE77A9B1A67EE877A53
:100C600007EE103AB8EEC77AC4E94A0187EE876A00
:100C700076EE267A17EE900A0CF056FE637A312B48
:100C8000C4E948017FF4F7ADF588DFED146ADFEDC4
:100C9000147A9FED147A06EE105AB8EE466AE6EE24
:100CA000267A77EE877A17EE900A0CF03DFEC4E9BB
:100CB0005E0128460CF016FEC4E96201DBE500BFC8
:100CC000000000606612714000708740E02CFF1F3A
:100CD00000002440000039409C1BFF1F0319C83D41
:100CE000000048C233938843A02CFF1F000000007F
:100CF00000C8094010B50A4BADF5006D196868468B
:100D00000EF004F86C46074B011B012268461A706E
:100D100008F0CCF9044808F0C3FB0DF5006D10BDD8
:100D2000582CFF1F3807FF1F9837FF1F10B50A4BBD
:100D3000ADF5006D196868460DF0E8FF6C46074B8D
:100D4000011B012268461A7007F020FA044808F0D7
:100D5000A7FB0DF5006D10BD582CFF1F3907FF1FB5
:100D60008437FF1F2DE9F843DFF83091374DDFF866
:100D70003081374C374F384E484602F0A3FF2A46A1
:100D8000414648460DF06CF9204602F09BFF2A468A
:100D9000414620460DF064F9304A314B3148DFF8C6
:100DA0000481002494700121022283F820401A60FB
:100DB00001F056FE224628212B4802F0F1FD0122C7
:100DC00028212A4802F0ECFD2146384608F0B8FBFD
:100DD0002A46314638460DF043F9254F2146404614
:100DE00008F0AEFB2A46314640460DF039F921465F
:100DF000384608F0A5FB2A46314638460DF030F952
:100E00001C4B9FED1D7AD3ED006A1C4A1C48B7EEBF
:100E1000006AC6EE267A67EE877AFDEEE77A17EE6D
:100E2000901AC2ED007A01F0D7FD164B16481968EA
:100E300001F0D2FD154B1648196801F0CDFD154B98
:100E400015481968BDE8F84301F0C6BD3007FF1F1B
:100E50005C2CFF1F482CFF1FC1940000502FFF1F68
:100E6000BC1BFF1FE02CFF1F9C1BFF1FA02CFF1FA4
:100E7000902CFF1F5807FF1F00007A44D42CFF1F3F
:100E8000F81BFF1F202CFF1FC02CFF1FE41BFF1FA0
:100E9000B01BFF1FD02CFF1FEC1BFF1F242CFF1FBC
:100EA000E13C0000802CFF1F00B50E4BADF6040D99
:100EB000196868460EF052F90B4B0C4801221A7063
:100EC00002F020FF50B168460EF0BAF969460246BA
:100ED000064802F07DFE054808F0E2FA0DF6040D22
:100EE0005DF804FB582CFF1F5C07FF1F242CFF1F1D
:100EF0002DE9F04F2DED048BADF5C55D81B028A82F
:100F00000025294640F2FC7240F8045B0DF07CFCA1
:100F1000294640F2FC720DF6A4000DF58554CDF87B
:100F2000A0580DF071FC0DF585502946043040F2B3
:100F3000FC7225600DF068FC814BD3ED007AF5EE74
:100F4000C07AF1EE10FA05DD7E4801F057FD012868
:100F500000F0F2807C4FD7ED007AF5EEC07AF1EE2A
:100F600010FA05DD794801F049FD012800F0D48030
:100F7000DFF83082D8ED007AF5EEC07AF1EE10FAA3
:100F800005DD734801F03AFD012800F0CD80714E77
:100F9000D6ED007AF5EEC07AF1EE10FA05DD6E4876
:100FA00001F02CFD012800F0AF806C4D2B78002B58
:100FB00000F0898009E06A4802F01CFEC0B20A28ED
:100FC00000F037820D2840F03682654802F0F4FDCB
:100FD0000028F0D18146624885F8009002F084FE36
:100FE0004B4640F2FF720DF50A615E4808F01CFBAB
:100FF0005D495C4808F0C6FA4FF0000AD346DFF8B6
:1010000088910DF50A6049460FF0A8F95749054641
:101010000DF03AFF002800F01382554928460DF0E4
:1010200033FF002800F0DE81524928460DF02CFFE6
:10103000002800F08182504928460DF025FF002845
:1010400000F084824D4928460DF01EFF002800F074
:10105000C9814B4928460DF017FF002840F09F82B8
:10106000484F05460DF1A10610E040460DF00CFF7B
:101070003123D8B13B7806F8013C02352C23122DE0
:1010800007F1010706F8023B00F0AC823E49002060
:101090000FF064F903783D498046002B00F0A281EF
:1010A0000DF0F2FE3A4930230028DED13B7006F8FD
:1010B000013CE2E707F094FFC0B20A2800F0A881E3
:1010C0000D2840F0D88107F0C7FF0028F2D108E0D2
:1010D00007F0F6F8C0B20A2800F04B820D2840F065
:1010E000598207F0DDF80028F2D12A4B1B68C3EBC8
:1010F00003139B0001D0013BFDD10DF5C55D01B08F
:10110000BDEC048BBDE8F08F234B1B78002B40F027
:10111000B781FFF7C9FE48E7204B1B78002B40F052
:10112000B781FFF7E7FD23E71D4B1B78002B40F04D
:10113000B781FFF7FBFD2AE7FFF786FB0AE700BF51
:101140005807FF1FF81BFF1F7C2CFF1FC02CFF1F21
:10115000B01BFF1F101CFF1FEC1BFF1F532FFF1F97
:101160005C2CFF1F902CFF1F784501005C4501009F
:10117000744501007C4501008C4501009445010047
:101180009C450100E42CFF1F68450100A4450100B7
:10119000A84501004407FF1F5C07FF1F3807FF1F1A
:1011A0003907FF1FCC2CFF1FCB490FF0D7F805469E
:1011B000002800F08B80C9490DF066FE002840F041
:1011C0009785FFEE008AC44900200FF0C7F8054656
:1011D00000287BD0C1490DF057FE002840F07586ED
:1011E000BFEE008ABC4900200FF0B8F80546002881
:1011F0006CD0BA490DF048FE002840F0D185BFEE12
:10120000009AF5EEC08AF1EE10FA26DBD7ED007AEF
:10121000B34BF4EE678AF1EE10FA1ED0F5EEC08AF9
:10122000F1EE10FAC3ED008A17DDB7EE007AC7EED3
:10123000287AAC4BAC489FEDAD7A67EE877AFDEE2D
:10124000E77A17EE901AC3ED007A01F0D5FBA648B5
:1012500001F0FAFBA64B01221A70B5EEC08AF1EE3E
:1012600010FA26DBD8ED007AA24BB4EE678AF1EED5
:1012700010FA1ED0B5EEC08AF1EE10FA83ED008AA6
:1012800017DDB7EE007AC7EE087A9B4B9B489FEDBF
:10129000977A67EE877AFDEEE77A17EE901AC3ED3C
:1012A000007A01F0A9FB954801F0CEFB944B012296
:1012B0001A70B5EEC09AF1EE10FA07DBD6ED007A9F
:1012C000B4EE679AF1EE10FA40F0F9841FAB009388
:1012D0008C4B93E803000DF5855304332060386888
:1012E00019800CF021FB02460B460FA886490DF031
:1012F000E7FC20460DF0A4FF0FA920440DF006FDE9
:10130000B9F800500580D8F800000CF00DFB02463B
:101310000B4617A87C490DF0D3FC20460DF090FF3A
:1013200017A920440DF0F2FC058030680CF0FCFA9F
:10133000009D02460B46284673490DF0C1FC294624
:1013400020460DF009FDD7ED007AF5EEC07AF1EEFA
:1013500010FA40F3B084634B18680CF0D3FA9FED99
:101360005C1B41EC100B0AF06FFD51EC100B0CF004
:10137000DFFDD8ED007AF5EEC07AF1EE10FA11DD5E
:101380000CF0C0FA5C4BCDE9000118680CF0BAFA19
:101390009DED001B41EC100B0AF056FD51EC100BBB
:1013A0000CF0C6FDD6ED007AF5EEC07AF1EE10FA3B
:1013B00011DD0CF0A7FA554BCDE9000118680CF0CF
:1013C000A1FA9DED001B41EC100B0AF03DFD51EC24
:1013D000100B0CF0ADFD1428B8BF14204C4B00EBE3
:1013E000800018602378002B3FF47FAEBAF1000F25
:1013F0005ED1BBF1000F3FF478AE20460DF020FF28
:101400000146204606F0C2FE424808F049F86CE664
:10141000002340F2FF720DF50A613F4808F004F91D
:101420003E493D4808F0AEF84FF0010A4FF0000B7E
:10143000E5E50023D5E50146394808F0E5F8C4E5BF
:10144000384B394A394D968893E8030020600DF5F2
:10145000855004300DF58553053301700DF5855128
:1014600010689E800DF585520B310C3218602C23CC
:101470000B701560B6E70146274808F0C5F822E66C
:10148000FFF7E2F92A4801F0DFFAFFF70DFD8CE5DE
:10149000FFF7DAF9264801F0D7FAFFF72BFC67E5EA
:1014A000FFF7D2F9224801F0CFFAFFF73FFC6EE5D3
:1014B00020460DF0C5FE0146204607F0F7FD1D4809
:1014C00007F0EEFFBBF1000F3FF40FAE95E700BF52
:1014D0000000000000408F4068450100CC4501003D
:1014E0007C2CFF1F202CFF1FC02CFF1F00007A4404
:1014F0003807FF1FCC2CFF1FE41BFF1FB01BFF1F73
:101500003907FF1F0046010008460100D02CFF1FCD
:101510004407FF1F8437FF1F802CFF1F7845010001
:10152000902CFF1F644501006C450100302E3500F2
:10153000F81BFF1F9837FF1F49460EF00FFF28B119
:101540000CF098FD002801DD01F024FA764B93E8B9
:1015500003000DF5855304332060198001F068F90C
:101560001FA90A2206F0D4F91FA920460DF0F4FBAA
:1015700038E7002340F2FF720DF50A616B4808F06E
:1015800053F86B49694807F0FDFF4FF0000A4FF030
:10159000010B34E50146654808F036F8A1E56549D8
:1015A00028460DF071FC88BB28AB634A03F1120595
:1015B0002C2012F8011F587019700233AB42F8D179
:1015C0005E4B93E803000DF58553043320600DF561
:1015D000855019700530002328A98DF8B1300DF021
:1015E000BDFDFFE6554B564A93E803000DF58553C4
:1015F000043320600DF5855019700530002328A9AB
:1016000093738DF8B1300DF0A9FDEBE64D492846F6
:101610000DF03AFC00283FF4E5AE4B4928460DF0AA
:1016200033FC20B3494928460DF02EFC002840F039
:101630009780284646490DF027FC002800F01C81C1
:10164000444D002305F11807237007E00DF01CFC42
:1016500000B12E700135AF423FF4C4AE3E490020C8
:101660000EF07CFE06783D49002EEFD1BAE601254A
:101670004FF000084FF00009374900200EF06EFED1
:1016800003780646002B3FF4ADAE34490DF0FCFB69
:10169000002846D0EB1F042B43D8DFE803F03426A4
:1016A000180A0300264F7B7A302B00F0DB800135CF
:1016B000E2E7234F3B7A302BF9D130460CF0DAFCCD
:1016C0000CF020F9C7E96089C7E95C01EFE71C4F1E
:1016D000FB79302BEBD130460CF0CCFC0CF012F93E
:1016E000C7E94E89C7E97001E1E7154FBB79302B97
:1016F000DDD130460CF0BEFC0CF004F9C7E94A8994
:10170000C7E94801D3E70E4F7B79302BCFD1304664
:101710000CF0B0FC0CF0F6F8C7E95489C7E95201A7
:10172000C5E7182DC3D15DE684450100482CFF1F95
:1017300078450100B4450100E32CFF1FAC450100D2
:10174000E02CFF1FBC450100C4450100D04501004D
:10175000D8450100FE2CFF1F68450100CC45010063
:10176000964928460DF090FB00283FF43BAE944983
:1017700028460DF089FB002800F02C83914928466B
:101780000DF082FB002800F016838F4928460DF0EB
:101790007BFB00283FF426AE8C4928460DF074FBF5
:1017A00000283FF401AD8A4928460DF06DFB002862
:1017B00000F04E82874928460DF066FB00283FF472
:1017C00011AE854928460DF05FFB0746002800F062
:1017D000F781824928460DF057FB00287FF402AEBE
:1017E0002B78002B3FF4FEAD7D490EF0B7FD7D490F
:1017F00005460DF049FB0646002800F086817A492F
:1018000028460DF041FB0646002800F00581774987
:1018100028460DF039FB002800F0858028467449E1
:101820000DF032FB00287FF4DDAD724F4FF0010860
:101830006B4900200EF092FD0378054608F1FF3653
:10184000002B3FF4CFAD6C490DF01EFB002855D0A6
:10185000731E2846062B4AD8DFE803F040382F27AE
:101860001E145C0030460CF005FC0CF04BF8C7E988
:101870006289C7E95E011AE7604B204619680DF0DE
:101880006DFCAFE50CF0F2FB51EC100B0CF098FB8B
:10189000386108F10108CBE70CF0E8FB51EC100BC4
:1018A0000CF08EFB564BD860F3E70CF0DFFB51ECED
:1018B000100B0CF085FBF860EBE70CF0D7FB51EC5C
:1018C000100B0CF05DFB4E4B5881E2E70CF0CEFBA9
:1018D00051EC100B0CF054FB7881DAE70CF0C6FBEE
:1018E00051EC100B0CF04CFB454B1881D1E70CF080
:1018F000BDFB51EC100B0CF043FB3881B8F1080F25
:10190000C7D1404B93E803000DF5855304332060A5
:10191000197067E50CF0AAFB51EC100B0CF050FBB2
:10192000374B1861EDE72E490EF018FD30B10CF081
:101930009DFB51EC100B0CF043FB04900698324DCC
:101940000BF0F2FFC5E9980107980BF0EDFF2F4B64
:10195000C5E99A0193E803000DF58553043320602F
:10196000049819800BF0E0FF02460B460FA82849A7
:101970000DF0A6F920460DF063FC0FA920440DF0F0
:10198000C5F9B9F800600680D5E99823204917A861
:101990000DF096F920460DF053FC17A920440DF0E8
:1019A000B5F90680D5E99A231FA81A490DF088F9E0
:1019B0001FA920460DF0D0F914E500BF2445010011
:1019C000E0450100E8450100F0450100F84501004F
:1019D000104601001846010020460100784601002B
:1019E00068450100804601008C46010090460100D8
:1019F000944601009C1BFF1FCC450100582CFF1F83
:101A0000A02CFF1F98460100E02CFF1F8446010018
:101A1000084601004C450100BB490EF09FFC0546FD
:101A200060B30CF023FB51EC100B0CF0C9FAB64973
:101A3000049030460EF092FC38B10CF017FB51ECDC
:101A4000100B0CF0BDFA08EE100AAF4900200EF0A2
:101A500085FC30B10CF00AFB51EC100B0CF0B0FA25
:101A60000690A94900200EF079FC054630B10CF033
:101A7000FDFA51EC100B0CF0A3FA0790F7EE007A88
:101A8000B4EE678AF1EE10FA00F02A82F0EE007AE6
:101A9000B4EE678AF1EE10FA7FF4B9AE06989B4D6A
:101AA0000BF042FFC5E9980107980BF03DFF984BFA
:101AB000C5E99A0193E803000DF5855304332060CE
:101AC000049819800BF030FF02460B460AA8914992
:101AD0000DF0F6F820460DF0B3FB0AA920440DF0F6
:101AE00015F90FAB0093B9F80060068000224FF0A3
:101AF0008043884900980DF0E3F820460DF0A0FBE4
:101B0000009920440DF002F93DE77F490EF026FCD4
:101B10000546A0B10CF0AAFA51EC100B0CF050FAEB
:101B20007949049030460EF019FC054638B10CF0A6
:101B30009DFA51EC100B0CF043FA08EE100AF7EE88
:101B4000007AB4EE678AF1EE10FA7FF458AE6F4D6A
:101B50006B79312B00F03E846D4B93E803000DF55B
:101B6000855304332060049819800BF0DDFE024693
:101B70000B460FA867490DF0A3F820460DF060FB57
:101B80000FA920440DF0C2F8B9F80060624B61491A
:101B90000680002217A80DF093F820460DF050FBA8
:101BA00017A920440DF0B2F80680D5E998231FA8A4
:101BB00058490DF085F81FA920460DF0CDF811E425
:101BC000FEF700FD0FA802F07DF82B78002B3AD02D
:101BD0004D4938460EF0C2FB4B49054638460EF0DB
:101BE000BDFB4E49074628460DF04EF980460028B9
:101BF00000F007834A4928460DF046F9002800F016
:101C0000B482484928460DF03FF9002800F0D681FB
:101C1000454928460DF038F90646002800F0708145
:101C2000424928460DF030F90646002840F09882D7
:101C30003F4B404D93E80700234603C329781A70B1
:101C4000002940F05C820FA802F04AF8FFF7CABBF7
:101C5000394B93E803000DF5855304332060386851
:101C600019800BF061FE02460B460FA829490DF0C2
:101C700027F820460DF0E4FA0FA920440DF046F8AD
:101C8000B9F800500580D8F800000BF04DFE024670
:101C90000B4617A81F490DF013F820460DF0D0FA97
:101CA00017A920440DF032F8058030680BF03CFE97
:101CB00002460B467BE74FF47A70FFF75ABB1F4B87
:101CC00003931D460D20002105F0A8FE284602F0D2
:101CD00019F810B1039802F007F8B5EEC09AF1EECA
:101CE00010FA86ED009A1FAB2ADC0093FFF7F0BADA
:101CF00028460CF0BBF951EC100B0CF061F908EE22
:101D0000900AFFF760BA00BF68450100E02CFF1F92
:101D100084460100084601000000F03F284601000B
:101D20003846010048460100584601006846010057
:101D30006C460100442CFF1F00460100242CFF1FAD
:101D40001D460093FEF73EFC28461323AF4AB049D8
:101D500002F02CF92979AA682B7B039D2971AA60CE
:101D60002B730025009B5A19039B527B2B44013592
:101D70000D2D5A73A74BF5D100980393C269DA6110
:101D800001F0AEFF039B184601F0BCFF002840F0B5
:101D90004083A14A0023302111713360FFF798BAC4
:101DA00028460CF063F951EC100B0CF009F909EE20
:101DB000100AFFF726BA0DF58552984B23600432BE
:101DC0002C230DF585509149137005300DF0C6F99F
:101DD000FFF708BB92490EF0C1FA03780546002BC5
:101DE0003FF400ABFEF7EEFB8E4B1B78002B42D08E
:101DF0003F2128460CF0D0FF10B12846FEF774FBB7
:101E00002946834802F046F90390002841D020ABD0
:101E100005931FAB00937F48039001F065FF2946AF
:101E20007A480DF09BF91323784A7949009802F01B
:101E3000BDF800980279037B816803980271059AC6
:101E40000373816000F10D0308321A3012F8011F8C
:101E500003F8011B83426F49F8D100980091C369D0
:101E6000CB6101F03DFF0099084601F04BFF6A4B42
:101E700038B331221A710DF58552684B2360043254
:101E80002C230DF585506149137005300DF066F96E
:101E900074E420AB059364485D491FAB1A46634B5D
:101EA00003600092104613232A4602F07FF8009840
:101EB00001F01AFF5C4B039A00981A6001F010FFC2
:101EC000A9E730221A71FFF78DBA28460CF0CEF838
:101ED00051EC100B0CF074F808EE100AFFF782B901
:101EE00006984D4D0BF020FD514BC5E9980193E844
:101EF00003000DF58553043320600498198034E6FF
:101F00004C4B484D93E80700234603C329781A70C9
:101F100000293FF498AE20AB1A46059302F80469F5
:101F20009046967100921046059A434B434942F8F9
:101F3000043C17AD03F024F9C8F80860C8F80C6039
:101F40004046294603F0E0F94FF02E080396C0B250
:101F50000AAE00283FF477AEEB7A13F0180327D1CE
:101F60002A782E2A24D01A46E95C013320291CBF86
:101F7000B1540132082BF7D1297A06F80280531C9C
:101F800020291CBFF154931C6A7A202A18BFF254EE
:101F9000AA7A18BF0133202A1CBFF25401339DF8DE
:101FA0000C20F254314638460CF06EFF002849D020
:101FB0002946009803F0A8F9C0B2CAE7204B194D92
:101FC00093E80700234603C329781A7000293FF4D9
:101FD0003AAE0E4938460CF057FF002873D0394608
:101FE0000B4802F065F83946094802F053F800281A
:101FF0007FF429AE20460DF023F9034601302C2250
:1020000039462044E2540DF0A9F81CE6EF2CFF1FDE
:10201000742FFF1F242CFF1FE02CFF1F244C434173
:1020200068450100442CFF1FE02FFF1F6D040000D6
:10203000844601005C460100F0460100BC1BFF1F06
:102040004C46010020460DF0FBF8034601303146B6
:102050002C222044E2540CF059FEB9F800600680AE
:102060000A2228A9E86905F053FC20460DF0E8F89B
:1020700028A920440CF04AFE06802B8A5A12C3F38A
:1020800043110A3203F01F038DF826208DF8251026
:102090008DF82430EB8903F01F02D9125200C3F3EC
:1020A000451308A88DF822108DF821308DF82020D6
:1020B00000F040FB28A90A2205F004FC28A92046CC
:1020C0000CF04AFEBFE5D6ED007AB64DF5EE407A4B
:1020D000F1EE10FA7FF4B7ADB34801F005FEB34955
:1020E00038460CF0D1FE00287FF479AFD5ED007AA8
:1020F000F5EE407AF1EE10FA3FF471AFA3E51FABB5
:102100001D4600933A461846A949012301F04EFFA7
:102110002979AA682B7B8DF8401011928DF84830F0
:10212000009B9A190FAB33440136527B5A730D2E24
:10213000F6D10098C369169301F0D2FD0FA801F003
:10214000E1FD00283FF47FADBAF1000F40F0A0811F
:10215000BBF1000F40F080810FA801F0C5FD72E5D2
:102160000FA801F0BDFDFFF734BB924B924D93E8F1
:102170000700234603C329781A7000293FF463AD92
:102180003F2138460CF008FE10B13846FEF7ACF996
:102190003946874801F07EFF0646002863D01FAB12
:1021A0000093009D824913233A46284601F0FEFE23
:1021B0002B7B2979AA688DF848308DF84010119250
:1021C0000023009AD1180FAA1A440133497B517396
:1021D0000D2BF6D10098C369169301F081FD3946A5
:1021E000734801F057FF0028B6D020460DF028F8BC
:1021F000034601302C2239462044E2540CF0AEFF55
:10220000AAE76E4B6C4D93E80700234603C3297879
:102210001A7000293FF417AD20AB1A461D4602F88C
:102220000489674B674945F8043C1646104617ADCC
:10223000009282F8068002F0A3FF30462946C6F8D5
:102240000880C6F80C8003F05FF8C7B229460098F2
:10225000EFB1EB7A13F0180FF5D12B782E2BF2D0CB
:1022600008F10108EFE7584D584B2B601FAB98461B
:102270004F49009318463A46132301F097FE404613
:1022800001F032FD40462E6001F02AFD89E720462C
:102290000CF0D6FFB9F8003023520A2228A9404694
:1022A0000BF038FF28A920460CF056FD009A29466D
:1022B00010469760D76003F027F80AAEC0B2002836
:1022C0003FF4C1ACEB7A13F0180865D12B782E2BB4
:1022D00062D020460CF0B4FFB9F8003023524246D9
:1022E0004346E95C013320291CBFB1540132082B5D
:1022F000F7D1297A4FF02E03B354531C20291CBF69
:10230000F154931C6A7A202A18BFF254AA7A18BF93
:102310000133202A18BFF25400F1010018BF013325
:1023200031462044F7540CF0F1FCB9F80080A0F8D5
:1023300000800A2228A9E86905F0EAFA20460CF094
:102340007FFF28A920440CF0E1FCA0F800802B8A34
:102350005A12C3F343110A3203F01F038DF82620EB
:102360008DF825108DF82430EB8903F01F02D91267
:102370005200C3F3451308A88DF822108DF82130C0
:102380008DF8202000F0D6F928A90A2205F09AFA43
:1023900028A920460CF0E0FC2946009802F0B4FF82
:1023A000C0B28CE7101CFF1F242CFF1FEF2CFF1F57
:1023B000742FFF1F3C460100442CFF1F2C460100D8
:1023C000F0460100BC1BFF1FE02FFF1F6D04000043
:1023D000000000001FED028A584F3226574801F0D6
:1023E000F3FABB8807EE903AF8EEE77AC82038EEA9
:1023F000278A05F051FB013EF0D1DFED517A88EEDE
:10240000277A17EE100A0BF08FFAC5E99801FFF74B
:10241000A3BBD6ED006A9FED4B7A4B4B4B4A4C4821
:10242000B7EE006AC6EE267A3121197167EE877A17
:10243000FDEEE77A17EE901AC2ED007A00F0DCFAB2
:10244000434800F001FB0123424A28461946137015
:1024500005F0E4FAFEF73CBF20460CF0F1FEB9F8B7
:10246000003023520FA801F03DFC014620460CF03D
:1024700073FC21463848FEF723F8002323700FA889
:1024800001F09AFB00BB35493348FEF719F863E6C3
:1024900020460CF0D5FEB9F8003023520FA801F009
:1024A00021FC014620460CF057FC21462C48FEF743
:1024B00007F8002323700FA801F07EFBC0B927495D
:1024C0002748FDF7FDFF43E605F0EAFE0028DAD1D4
:1024D0004FF400750FA801F06FFBE8B905F0C2FEDC
:1024E00005F0DEFE0028CAD01B4806F0D9FFC6E77B
:1024F00006F0B2FD0028E2D14FF400750FA801F0FC
:102500005BFB90B906F062FE06F0A6FD0028D2D073
:10251000134806F0C5FFCEE70FA801F06BFBC0B271
:1025200005F02AFE013DD9D0D4E70FA801F062FBE7
:10253000C0B206F03FFE013DE4D0DFE79C1BFF1F69
:102540000000484200007A44E02CFF1FD02CFF1FFF
:10255000EC1BFF1F5C07FF1F8437FF1FA046010015
:102560009837FF1F664A674B2DE9F04F664EDFF83C
:10257000A8A1664CDFF89881A2FB0052170C07F166
:10258000040EA3FB0025A6FB00626D09AEFB0AAB9F
:10259000D20AA3FB0563A4FB0264CBEB0E060BEB94
:1025A00056065B09B6082409C6EBC606C3EB03133F
:1025B000A5EB830304EB4404C5EB0515C6EB0E063F
:1025C000A0EB8500A2EBC402013600258A700870DA
:1025D0004B70CE702A4640F26D1A4FF0640C4FF4E7
:1025E000C8790EE0CBEBE01009FB103084BB00286B
:1025F00014BF50464FF4B7700244974205F10105ED
:1026000014D3EEB206F2B27388FB03404FEAE37BC9
:10261000CBEB601413F0030E0CFB1434E2D040F249
:102620006D100244974205F10105EAD28E71BEF1A8
:10263000000F10D136484FEAE37B80FB0340CBEB21
:102640006014642505FB143484B34FF4B77506E0B9
:102650004FF4B770D0E740F26D154FEAE37B2C4C96
:102660002C4884FB0364CBEB641C521BCBEBE41BB8
:1026700064254FF4C87404FB1B3B05FB1C3CBA1AD1
:102680000124002302E00134E4B20133012BDEB265
:1026900020D01D5C954216D80C2CA2EB0502F2D17D
:1026A0000D2601320A714E71BDE8F08FCBEBE010C0
:1026B0004FF4C87404FB1030002840F26D1508BFB9
:1026C0004FF4B775CBE70136F6B201320A714E719D
:1026D000BDE8F08FBEF1000F0BD1BCF1000F0AD1A5
:1026E000BBF1000F14BF1C251D25AA4205D3521BA8
:1026F000C9E71C25F9E71D25F7E70226D1E700BF4A
:1027000007452EC289888888C5B3A291ABAAAAAA18
:102710001F85EB51A84601002549922410B50349B5
:102720000446FFF71FFF024B1C6010BD582FFF1F10
:10273000542FFF1F2DE9F0413949867901FB06F13D
:1027400006B306F2B27C40F2B373DFF8D8E0642738
:102750004FF4C8780DE013F0030F09D1C2EBE51276
:1027600008FB123204B91AB901F5A83101F5C0719C
:1027700001338EFB0325DA17C2EB65149C4507FB7A
:102780001434E8D14779012F2FDD264C264ADFF893
:102790009CE006F2B27384FB0346DC17C4EB661CB4
:1027A0006425C4EBE6164FF4C87405FB1C3C04FB1F
:1027B000163603F00305012307E014780133BB420A
:1027C0000EFB041102F101020FD0022BF5D1002DF6
:1027D000F3D1BCF1000F1BD001F5181101F56E51BA
:1027E0000133BB4202F10102EFD1437885780478CE
:1027F00002790E48C3EB03134FF461669B0006FB9E
:1028000005332344013A00FB02300844BDE8F0815F
:10281000002ED2D101F5181101F56E51E0E700BF8D
:102820008033E1011F85EB51A84601008051010072
:10283000F0B5204C204E23683268204D83B02868C4
:102840000093009B9B1AB3F57A7F0FD3013000E011
:10285000084623680093009B02F57A729B1AB3F531
:102860007A7F00F10101F3D228603260144F3B6897
:1028700098420FD3134B1B6863B19847124B58B95A
:1028800012491A680B7828680033024418BF0123E4
:102890003A600B7003B0F0BD226801921B680B4ACE
:1028A000019C28600344022134603B60117003B036
:1028B000F0BD00BF6C32FF1F6C2FFF1F602FFF1F8A
:1028C000702FFF1F682FFF1F6007FF1F642FFF1F60
:1028D00008B5FFF7ADFF044B1B68984201D0FFF726
:1028E0001DFF024B987808BD542FFF1F582FFF1F64
:1028F00008B5FFF79DFF044B1B68984201D0FFF716
:102900000DFF024B587808BD542FFF1F582FFF1F93
:1029100008B5FFF78DFF044B1B68984201D0FFF705
:10292000FDFE024B187808BD542FFF1F582FFF1FC4
:1029300008B5FFF77DFF044B1B68984201D0FFF7F5
:10294000EDFE024B187908BD542FFF1F582FFF1FB3
:1029500008B5FFF76DFF044B1B68984201D0FFF7E5
:10296000DDFE024B587908BD542FFF1F582FFF1F63
:1029700008B5FFF75DFF054B1B68984201D0FFF7D4
:10298000CDFE034B987900F2B27008BD542FFF1FA3
:10299000582FFF1F70B40A4B0A4A1B6812680A4E70
:1029A0000A4D0B49306083B010440193019C094BE0
:1029B000286002220C601A7003B070BC704700BF20
:1029C0006C32FF1F6007FF1F602FFF1F702FFF1F5C
:1029D0006C2FFF1F642FFF1F10B40024054A0470E2
:1029E00083B012680192019A8160426003B05DF881
:1029F000044B70476C32FF1F8160704710B411495F
:102A000044680B68826883B00093009B1B1B934251
:102A100012D342B1037833B922444260012003B09B
:102A20005DF8044B70470B680193019B43600120E4
:102A300003B05DF8044B7047002003B05DF8044B11
:102A4000704700BF6C32FF1F034B82B01B680193BD
:102A5000019B436002B070476C32FF1FFFFFFFFF16
:102A60002DE9F00F6A4CDFF8BC9103460D4607CC08
:102A7000C3F817200022C3F83220A3F81B205A778E
:102A800083F836203022C3F80F00C3F813109A776A
:102A9000DA7783F8202083F8212083F8222083F836
:102AA000232083F8242083F8252083F8262083F828
:102AB000272083F8282083F8292083F82A2083F808
:102AC0002B2083F82C2083F82D2083F82E2083F8E8
:102AD0002F2083F8302083F8312083F8322083F8C8
:102AE00033201D6038A5D5E9004539A7D7E900672F
:102AF0004FF00008C3E94289C3E948450FF2D809FD
:102B0000D9E9008936A5D5E90045C3E9646736A748
:102B1000D7E9006736A1D1E90001C3E95A89C3E9C1
:102B20008045DFF8049183F8342033A5D5E90045CA
:102B3000C3E956674FF00008364FC3E952010FF260
:102B4000C00BDBE900AB34490026C3E992890FF2E0
:102B5000B809D9E90089C3E99867C3E99A452F4FB5
:102B60002F4D0020C3E98C01002600200021002405
:102B7000C3E94401C3E94601C3E95001C3E958016F
:102B8000C3E96601C3E96C01C3E97A01C3E98401C1
:102B9000C3E97E01C3E98601C3E99001C3E9940159
:102BA000C3E940ABC3E94C89C3E97089C3E97867DD
:102BB000C3E99667C3E97C45C3E982451846BDE889
:102BC000F00F7047AFF300800000000000F9F540FF
:102BD000000000A09999F33F00000000D0BCF8402D
:102BE000000000A09999A93F000000608FC2C53F76
:102BF0000000000000E075400000000097ECED3F91
:102C0000000000E04D62803F0000006066027240FC
:102C1000B44601000000C0400000D03F0000F03F7B
:102C2000000014400000E03F00000840FFFFFFFFED
:102C3000012940F0F6822DE9F04F93B090ED487BEA
:102C40004FF0020BCDF804B00246019B0B9051EC03
:102C5000170B92ED507B013B032BD2E94C678DEDB6
:102C60000C7B82468B460A9300F05681042B00F0C1
:102C7000C682504659460022DB4B0AF0F7FC8246DA
:102C80008B4632463B46304639460AF0A1FEACA39D
:102C9000D3E90023CDE906010AF09AFEAAA3D3E9FD
:102CA000002304460D46304639460AF091FE02469E
:102CB0000B46204629460AF0D9FCA5A3D3E90023F8
:102CC0000AF0D4FC324604460D463B46A2A1D1E9A7
:102CD00000010AF0A7FF02460B46204629460AF0EB
:102CE000C5FC41EC100B09F00BF99DA3D3E90023BF
:102CF000304639468DED040B0AF0B6FC02460B4611
:102D0000804689460AF064FE97A3D3E9002304466F
:102D10000D46504659460AF05BFE95A3D3E90023C1
:102D20000AF0A4FC94A3D3E90023CDE902012046D4
:102D300029460AF04DFE02460B46DDE902010AF083
:102D400095FCDDE90C230AF043FE9DED040B53ECEA
:102D5000102B0AF03DFE52465B460AF063FF024626
:102D60000B46CDE904230AF033FE85A3D3E9002303
:102D7000CDE90201404649460AF02AFE82A3D3E982
:102D800000230AF073FC82A3D3E90023CDE90801F4
:102D9000204629460AF01CFE02460B46DDE90801E2
:102DA0000AF064FC7CA3D3E9002304460D464046A8
:102DB00049460AF00DFE7AA3D3E900230AF056FC37
:102DC000DDE904230AF004FE02460B4620462946AC
:102DD0000AF04CFC74A3D3E9002304460D46404698
:102DE00049460AF0F5FD72A3D3E900230AF03EFC40
:102DF000DDE902230AF0ECFD02460B462046294697
:102E00000AF034FC324604460D463B4650465946CD
:102E10000AF008FF02460B46204629460AF0D8FD74
:102E200002460B46002071490AF01EFC5246044639
:102E30000D465B46504659460AF0CAFDDDE90623B9
:102E40000AF0F0FE5CA3D3E9002380468946DDE961
:102E500002010AF0BDFD5AA3D3E900230AF006FCE3
:102E600002460B46404649460AF0B2FD0B46024672
:102E7000294620460AF0FAFB0A9B032B04460D461E
:102E800000F07D81042B00F0B380022B50464EA34E
:102E9000D3E90023594600F037810AF099FD4CA38D
:102EA000D3E9002380468946204629460AF090FD52
:102EB00032463B460AF08CFD02460B4640464946E8
:102EC0000AF0B0FE44A3D3E9002304460D46DDE931
:102ED00004010AF07DFD02460B46002043490AF03A
:102EE000C3FB02460B46204629460AF071FD3CA36F
:102EF000D3E900230AF06CFD0B9BC3E96401019B3D
:102F0000052B00F0FE80019B01330193019B013BE7
:102F1000032B0A937FF4AAAE504659460022324B47
:102F20000AF0A2FB002282468B46304639462E4BE1
:102F30000AF09CFB06460F46A3E600BFAFF30080F5
:102F4000000000C0D7F5E93E000000C0899493BF9F
:102F500000000040F3F74040000000202AC7B8C03E
:102F600000000060661271400000004095DB603E8A
:102F7000000000208A02F03F000000005DCAA23E6F
:102F8000000000A0717E5FBE000000C05487BA3E02
:102F900000000000D25ADE3D00000000BF0556BE12
:102FA00000000040D8EFD73E000000E06BEEC3BE4B
:102FB00000000020A9142A3F000000C0A16D40BEFF
:102FC00000000000FE1EB43D000000E0A7F63C40FB
:102FD0000000008007A120403880C4522931D83F2A
:102FE000000000E04D62503F000024400000F03F30
:102FF00093A3D3E90023504659460AF0E9FC8CA379
:10300000D3E9002380468946204629460AF0E0FCA1
:1030100032463B460AF0DCFC02460B464046494637
:103020000AF000FE84A3D3E9002304460D46DDE93F
:1030300004010AF0CDFC02460B46002084490AF048
:1030400013FB02460B46204629460AF0C1FC76A334
:10305000D3E900230AF0BCFC0B9CD4E964230AF0FA
:1030600003FB00227B4B0AF0B3FCDDE910230B9439
:10307000D4E97C4506460F46104619460AF0A8FCDE
:1030800022462B460AF0A4FC22462B460AF0A0FC5E
:103090000B9CDDE90E23D4E97E4580468946104627
:1030A00019460AF095FC22462B460AF091FC22466E
:1030B0002B460AF08DFC02460B46404649460AF074
:1030C000D5FA3246044630460B9E3B460D463946FD
:1030D000D6E980670AF07CFC32463B460AF078FC71
:1030E00032463B460AF074FC02460B46204629460F
:1030F0000AF0BCFA41EC100B09F022F90B9E86EDA8
:10310000840B13B0BDE8F08F0AF062FC48A3D3E94A
:10311000002380468946204629460AF059FC32465B
:103120003B460AF055FC02460B46404649460AF02B
:1031300079FD41A3D3E9002304460D46DDE90401EE
:103140000AF046FC02460B46002041490AF08CFA80
:1031500002460B46204629460AF03AFC32A3D3E940
:1031600000230AF035FC0B9BD3E964230AF07CFAB8
:103170000022384B0AF056FDCDE91001C3E630A31A
:10318000D3E90023504659460AF022FC28A3D3E98C
:10319000002380468946204629460AF019FC32461B
:1031A0003B460AF015FC02460B46404649460AF0EB
:1031B00039FD21A3D3E9002304460D46DDE90401CE
:1031C0000AF006FC02460B46002021490AF04CFAA0
:1031D00002460B46204629460AF0FAFB12A3D3E921
:1031E00000230AF0F5FB0B9BD3E964230AF03CFAB9
:1031F0000022184B0AF016FDCDE90E0183E6304699
:1032000039460022134B0AF02FFA0FA3D3E900230B
:1032100006460F46DDE90C010AF028FACDE90C015B
:103220002FE57047AFF30080000000E04D62503F93
:103230000000008007A120403880C4522931D83FC7
:10324000000000E0A7F63C40000000A09999B93FBB
:103250000000F03F00002440012936D1D0B5D0E96C
:103260005267044600220023304639460AF022FE07
:1032700060BB47EC106B09F063F819A3D3E9002396
:1032800051EC100B0AF0A4FBD4E95267C4E96601C3
:1032900000220023304639460AF02AFEE0B13246C9
:1032A0003B4643EC102B09F04BF80FA1D1E900018C
:1032B00053EC102B0AF0B6FC02460B46D4E982010F
:1032C0000AF086FBC4E98601D0BD704707F10043D0
:1032D0001F46C4E95267CCE7324607F10043E0E7F6
:1032E00000000040AD71F43F00000040AD71E43FCC
:1032F00001290ED110B5D0E966230446D0E9960124
:103300000AF066FBD4E98623C4E96801C4E988238E
:1033100010BD7047FFFFFFFF2DE9F047D0E96423A0
:10332000824637A1D1E900010AF07CFC41EC100B88
:10333000DAE9684509F004F8204653EC102B2946D9
:103340000AF046FB0022CAE96A01314BDAE968015A
:10335000DAE964670AF03CFB29A3D3E900230AF009
:1033600037FB9FED291B47EC106BDAE9888904468F
:103370000D4608F049FE204653EC102B29460AF072
:1033800051FC324604460D463B461DA1D1E90001E1
:103390000AF048FC424606460F464B464046494620
:1033A0000AF016FB02460B46304639460AF010FB7F
:1033B00022462B4606460F46204629460AF008FBC1
:1033C000DAE9848904460D4642464B464046494662
:1033D0000AF0FEFA02460B46204629460AF0F8FAA1
:1033E00002460B46304639460AF040F941EC100BD4
:1033F00008F0A6FF8AED8A0BBDE8F087AFF30080E6
:10340000000000A09999F33F000000000000F83F81
:103410000000E03FFFFFFFFF012900D07047D0B55B
:103420000BA3D3E900230446D0E94C010AF0D0FAFB
:1034300041EC100BD4E96A6708F082FF304653EC88
:10344000102B39460AF0EEFBC4E96E01D0BD00BF77
:10345000051B43A35E871841012900D07047D0E9BE
:103460006E23D0B51946044610460AF0B1FA19A3E6
:10347000D3E9002306460F460AF0AAFA0022144BAD
:103480000AF0F4F802460B46D4E970010AF0CAFBD0
:103490000DA3D3E90023C4E94C01304639460AF0B4
:1034A00097FA00220A4B0AF0E1F802460B46002088
:1034B00007490AF0B7FBD4E98C230AF089FAC4E97A
:1034C0007E01D0BDAFF30080000000809999D93F04
:1034D0000000F03F000000809999C93FFFFFFFFF07
:1034E0002DE9F04F2DED048B012989B0824600F0C3
:1034F000B580022940F0AD8090ED487B00248DED31
:10350000067B00254FF00008DFF838924FF0000BE3
:103510006AE0CDE9004587A3D3E90023DDE9000196
:103520000AF0E6FC85A3D3E90023002869D04046D1
:1035300049460AF04DFA02460B4600207C490AF043
:1035400093F89AED487B9FED661B41EC100B8DEDD7
:10355000027BDAE95A4541EC180B08F055FD62A3ED
:10356000D3E90023B0EE409AF0EE609ADAE95A010E
:103570000AF02EFAB0EE480AF0EE680A9FED5C1BE6
:1035800006460F4608F040FD53EC192B204629460D
:103590008DED040B0AF01CFA02460B46DDE9020130
:1035A0000AF062F89DED040B044653EC102B0D4617
:1035B000304639460AF00CFA02460B4620462946A8
:1035C0000AF030FB02460B46404649460AF04CF8EA
:1035D00042464B4606460F460AF046F80BF1010BF1
:1035E00004460D46B046B94600220023204629462F
:1035F0000AF07EFC00288CD105F100430094019371
:1036000089E7BBF1000F92D03BA3D3E90023DDE9AA
:103610000601CAE972670AF0DBF99FED391B41EC3C
:10362000100B08F0F1FC38A3D3E9002351EC100B88
:103630000AF0CEF9DAE97C230AF0CAF92EA3D3E91D
:1036400000230AF0C5F922462B460AF00FF8CAE912
:103650008E0109B0BDEC048BBDE8F08F26A3D3E941
:103660000023D0E948010AF0B3F99FED291B41EC92
:10367000100B41EC180B08F0C7FC27A1D1E90001A1
:1036800053EC102B09F0F0FF25A3D3E900230AF037
:103690009FF925A3D3E900230AF09AF9B0EE480A6E
:1036A000F0EE680A9FED161BCAE9720108F0ACFC47
:1036B00015A3D3E9002351EC100B0AF089F9DAE9DC
:1036C0007C230AF085F90CA3D3E900230AF080F9E2
:1036D000CAE98E0109B0BDEC048BBDE8F08F00BFD4
:1036E000000000E0EC0515400000004052141F3FB0
:1036F000000000E0EC051140000000404F5A333F4D
:10370000000000606EE9E9BF000000603142B14096
:10371000000000A0465AC83F4A947421628BFE3FC5
:10372000000000C0D399F240000000E0D781D33FF1
:103730000000F03F00000040E17A843F00000000FC
:1037400049A7F73E00408F4001292DE9D0430446A8
:1037500025D0022921D1D0E94C6700222A4B3046DE
:10376000394609F083FF02460B4621A1D1E9000149
:103770000AF058FA20A3D3E9002380468946304650
:1037800039460AF04FFA02460B46404649460AF0CF
:103790001FF9C4E97401BDE8D083BDE8D083D0E946
:1037A0004C670022184B3046394609F05FFF02464D
:1037B0000B460FA1D1E900010AF034FA0EA3D3E9B8
:1037C000002380468946304639460AF02BFA0246E5
:1037D0000B46404649460AF0FBF809A3D3E900230B
:1037E0000AF0F6F8C4E97401BDE8D083AFF30080B5
:1037F000000000E0B557BD40000000606632724036
:10380000000000A0F7C6B03E00005E40012912D1C2
:1038100010B5D0E96A230446D0E964010AF0D8F86B
:10382000D4E940230AF0D4F8D4E974230AF0FAF971
:10383000C4E9760110BD7047012913D0022910D1C7
:1038400010B50CA3D3E900230446D0E96A010AF0BD
:10385000BFF80AA3D3E9002309F008FFC4E99601E1
:1038600010BD7047024B0022C0E99623704700BF8D
:103870000000F03F00000080ABDE14BF000000A09D
:103880001F03F03F10B5002282B004460B4BD0E975
:1038900098018DED000B09F0E7FED4E99A230AF0B8
:1038A00097F89DED000B02460B4651EC100B09F00A
:1038B000DBFE41EC100B02B010BD00BF0000C040A9
:1038C0002DE9F04F83B00446FEF7B2FF0AF01AF874
:1038D000D4E94A23D4E94E89D4E96067C4E90E01EA
:1038E000C4E91223D4E96201D4E95223C4E914895A
:1038F000C4E91667D4E94889D4E97067C4E91801B6
:10390000C4E91A23D4E95C01D4E95E23234DD4E948
:1039100054ABC4E91C89C4E91E67D4E96689D4E9BB
:103920006A67C4E92001C4E92223D4E97201D4E919
:103930004C232D680195C4E92A23C4E910ABC4E9DE
:103940002489C4E92667C4E92801019809F0CAFF5F
:10395000D4E98689D4E98A67D4E97E23D4E98EAB99
:10396000C4E92C01C4E92E89C4E93067D4E964892B
:10397000D4E97467D4E97601C4E93423D4E9962301
:10398000C4E932ABC4E93689C4E93867C4E93A010D
:10399000C4E93C2303B0BDE8F08F00BF6C32FF1FC9
:1039A00070B40025074C017043F6FF760021468174
:1039B000C5600461427081708180C180018170BCEA
:1039C000704700BFCDCCCC3F2DE9F04FDFF8CC9154
:1039D000714D85B00646CA464FF001087478002C38
:1039E0004ED0012CFBD10027327899F80D10D9F870
:1039F000100000940423019703F0F4F9D9F81000A3
:103A0000DFF898B1D0F83821D0F834319A42E5D0B7
:103A100003F002FA0390DAF8100003F0FDF9039BBB
:103A2000C3F38112022A00F09C80032A00F0AB80CD
:103A3000012A00F0A0801B02C2B203F47C5313439E
:103A4000B380DBF8100003F0E7F90546DBF810005F
:103A500003F0E2F92D02C0B205F47F4303435B118A
:103A6000F3809BF80D20DBF8101000972346584692
:103A700003F090F9B37823F00F033C46B37041E0B4
:103A80003278697B286901940423CDF8008003F023
:103A9000A9F92869404FD0F83821D0F834319A423A
:103AA00001D174789DE703F0B7F98346286903F0E4
:103AB000B3F9CBF38113022B4BD0032B37D0012B5F
:103AC00024D04FEA0B2BC3B20BF47C5B43EA0B030D
:103AD000B380386903F0A0F90546386903F09CF912
:103AE0002D02C0B205F47F4303435B11F3807A7B60
:103AF000396900940123384603F04CF9B37823F078
:103B00000F03B370204605B0BDE8F08F7A7B3969AA
:103B10000094384603F03EF9B378052423F00F03F0
:103B200043F005032046B37005B0BDE8F08F7A7B03
:103B3000396900943846012303F02CF9B378042442
:103B400023F00F0343F004032046B37005B0BDE833
:103B5000F08F6A7B296900943846012303F01AF933
:103B60009FE79AF80D20DAF8101000972346584680
:103B700003F010F932E79BF80D20DBF810100097E6
:103B800023465846C6E79BF80D20DBF81010009737
:103B900023465846D0E700BF2832FF1F1432FF1FCC
:103BA00010B582B002AB026803F8011D54681946D3
:103BB0000122A04702B010BDC06938B18369C06856
:103BC00047F6FF72181A904228BF1046704700BF90
:103BD000C36910B5044643B10020187192B2E06980
:103BE00001F07CFDE3691B791BB1012323710020E7
:103BF00010BD10BDC06978B100B583B001220DF1D0
:103C0000070101F0E5FA01280CBF9DF807004FF00D
:103C1000FF3003B05DF804FB4FF0FF30704700BF8A
:103C2000C369C3B110B582B00446012218460DF134
:103C3000070101F0CDFA012803D04FF0FF3002B0A8
:103C400010BDE0699DF80740C168013901F09EFB95
:103C5000204602B010BD1846704700BFC06908B1C9
:103C600001F0C6BB704700BF2DE9F04105464FF497
:103C70007A731348AB60002328602B712B732420C8
:103C80000C4690460AF04CFAE861B0B1064604F1E1
:103C9000200E20686168A268E36837460FC71034B9
:103CA00074453E46F5D12068386041460C2205F146
:103CB0000D000BF083FB00236B762846BDE8F081F6
:103CC000CC4601004FF47A72044982600022016000
:103CD00002710273C2614273704700BFCC4601009B
:103CE000704700BF0D307047C36953B110B504462B
:103CF000184601F0F5F9E0690AF01AFA0023E361C9
:103D000010BD7047C06918B18079003018BF01201C
:103D1000704700BF30B58BB000240A460A4D8DF8BD
:103D200008400146012301A88DF80A40019501F0E1
:103D300093FCA04218BF012402D001A801F0D0F9E1
:103D400020460BB030BD00BFF04601000AB901208B
:103D5000704708B501F0AAFC003018BF012008BD6B
:103D6000F0B50E68835D2F2B08BF0136841902F170
:103D7000FF3E002523782F2B274604F1010408D0AD
:103D80003BB101350C2D06F101060EF8013FF1D1D2
:103D90008719002353553B782F2B04BF0136871911
:103DA0000E603878003018BF0120F0BD2DE9F04FCB
:103DB00099B08846264D069500218DF81C10834643
:103DC0009246994644468DF81E108DF840108DF8A5
:103DD000421001910F9506AE05E001F081F9FDB1A9
:103DE000234634461E4602AA01A95846FFF7B8FFEB
:103DF00080F00102D2B24B4602A905462046D047C8
:103E000021460746012302AA70B13046ADB101F048
:103E100023FC444505462046DFD10DB10FACDFE75A
:103E2000002019B0BDE8F08F4445F9D0204601F0DC
:103E300057F9384619B0BDE8F08F444506D0204602
:103E400001F04EF9012019B0BDE8F08F0120E8E73C
:103E5000F0460100FE2938B5054617D00A46012173
:103E600000F024FE03460BB9002038BD2C1D20466F
:103E70000122294601F042FF98B1214605F12C00AC
:103E800001F07EF9003018BF012038BD017000F04C
:103E9000F9F9044600F0E4F9B4FA84F35B09A87078
:103EA000E1E702462946204601F028FF0028E4D138
:103EB000002038BD2DE9F04F99B04FF00008DFF831
:103EC000E8A08DF81C808146043106A89346019332
:103ED0008DF81E808DF840808DF84280CDF818A0B6
:103EE000CDF83CA001F04CF906AE5D460FAF2F2196
:103EF00028460AF051FF441BE4B2294608B32B7848
:103F00002F2B02A81BD00C2C28BF0C2422460BF010
:103F100055FA18AB2344384603F8588C01F0E0F802
:103F2000012302AA3146384601F096FB88B3304699
:103F300001F0D6F8334625443E461F46D7E7013503
:103F4000D5E7019831797279B379B468377DCBEBD5
:103F500005050560F068356989F8041089F80520C1
:103F6000B16989F80630F269336AC9F80C0048462D
:103F7000C9F800A0C9F80840C9F8105089F81470B1
:103F8000C9F81810C9F81C20C9F8203019B0BDE8CC
:103F9000F08F89F8040089F806004846C9F800A0A7
:103FA00019B0BDE8F08F00BFF0460100F0B59DB03C
:103FB00005461F4601A86B461446FFF77BFF009A93
:103FC000A35C1444002B42D09DF80A202F4E0A9681
:103FD00000238DF82C308DF82E30002A31D00AA81D
:103FE0003B46224601A901F037FB50B301A801F07E
:103FF00077F817F0060F43D19DF82C700C9B9DF8B5
:104000002DE0139622469DF82E408DF850708DF8C5
:10401000524015930D990E989DF83C70109E119C7E
:10402000129B8DF851E01691179013A928468DF830
:10403000607019961A941B93FFF716FE28461DB060
:10404000F0BD2846FFF73EFE28461DB0F0BD9DF8A6
:1040500008700E4E9DF809409DF80A30039A8DF8BD
:10406000507013968DF851408DF852301592049986
:1040700005989DF81870079E089C099B044AD2E792
:104080000AA8109901F082F9B6E700BFF0460100D6
:10409000E446010010B40C46002300F12C01034A51
:1040A00020465DF8044BFFF781BE00BF153D0000C0
:1040B00010B40C46002300F12C01034A20465DF8A1
:1040C000044BFFF773BE00BF4D3D0000064B074A8F
:1040D000DA620221002259609A7083F8242083F862
:1040E000302083F832207047742FFF1FF046010004
:1040F00010B4114C114B226811491340184322F09F
:10410000080240F46020226020600B681C0706D47F
:104110000C4B01E0013B02D00A681207FAD5064BAE
:10412000094A5DF8044B40F008001860136843F436
:1041300080131360704700BF2C100B400700F0FF86
:1041400024100B40FFFF0F0030100B402149224A82
:104150000B6843F080030B6011461368DB07FCD447
:104160000B689B07F9D41D4B30B44FF08072194D8A
:10417000186000E0A2B12968194B164C0B40013AB7
:10418000002BF7D062B1012B0AD1236813F0800F06
:1041900023680FD043F001132360032030BC704725
:1041A0000C4A136843F4702343F0010313600120A9
:1041B00030BC704713F4803305D0236843F00113FB
:1041C00023600520F4E7226842F0010218462260CD
:1041D000EEE700BF30100B4024100B400C100B40DA
:1041E00001000E0070B50D4D0D480E4E00232B60E2
:1041F000FFF7ACFF6324034606E04BB92B60FFF7E3
:10420000A5FF013C034605D0326805485207F4D4A7
:10421000184670BD002808BF052070BD08100B406F
:104220000000DB0C24100B4070B5094C0023054640
:1042300023600848FFF78AFF00B170BD064E0748AB
:1042400033682560FFF782FF0028F6D1336870BD20
:1042500008100B4000001A3710100B400000022914
:10426000074B1A784AB99A782AB15B78002B0CBFB1
:10427000022003207047012070470020704700BFD4
:10428000C82FFF1F2DE9F047664D674E2B68674F1B
:104290006749684C6848694ADFF8C4E143F4003371
:1042A0002B60336843F4005333603B6843F00203F0
:1042B0003B600B6843F002030B60236805F59F45E4
:1042C00006F59F4607F59F4701F5D12123F001032D
:1042D000236001F2EC7100235835543654370360E3
:1042E000574813602B600A4633603B60CEF80030BD
:1042F0000860136813F08073FBD1524C524A534844
:10430000534923604FF481354FF010132824056082
:104310000C604FF487501360FFF7EAFE4D4A1368B4
:104320009C07FCD1454EDFF810E14B4C4B4A4C4901
:104330004C4F4D4D4D4840F24343CEF80030336072
:104340004FF48866266013604FF6FF76484C3B605A
:1043500002F5C8220B6020322E604FF4FA7104601F
:10436000136843F00063136013681801FCD401392B
:10437000F6D13D4A3748136843F080031360036861
:10438000DA0308D43B4B02205970997018705960B9
:104390009960BDE8F087374C374E21706170A1708D
:1043A000084631606160A160FFF7D0FE68B9334D07
:1043B00033482B684FF4D5733360FFF7C7FE40B91D
:1043C0002B682B68B3F5D57F29D001202070BDE87C
:1043D000F0870528F9D10020FFF726FF0028F4D147
:1043E000264B1A6812F4401F58D06278254FDFF828
:1043F0009880002A05461E4608BF4FF4401704E087
:104400003268002A42DB454546D03846FFF70CFFAC
:1044100001351A4B0028F3D00120BDE8F0870123B5
:104420006370D8E730800440388004403C8004400A
:104430004080044000D0004000D0044004D004403C
:1044400000800001C0100B4044100B4004100B40D2
:1044500028100B4024100B4008D004400CD004401E
:1044600014D0044010D0044030100B4034100B40E6
:10447000BB007F11C82FFF1F08100B4010100B400E
:1044800000001A0800003040A0860100544A9542FE
:1044900002D01B685B0001D400236370514E524868
:1044A00000233360FFF752FE034600288DD14F4DA5
:1044B0004F482A683360FFF749FE002885D12B68F2
:1044C0002B684C484C4D1B0C1B0433606360FFF79A
:1044D0003DFE00287FF479AF484B49491A68120E17
:1044E000EA700A6812F4400F6FD1196845481B68DA
:1044F000026800689B0203F4406343EA9253C0F3EE
:10450000C2105A1CC1F30321831C093902FA03F3B8
:104510008B40AB60334E636833603B48364FFFF7E8
:1045200015FE00287FF451AF304D38482B684FF40A
:1045300000733360FFF70AFE00287FF446AF7B6804
:104540002A6833483360FFF701FE00287FF43DAF4F
:1045500002232A682F483360FFF7F8FD00287FF414
:1045600034AF2D4B2A681A68DFF8B4A0DFF8B49096
:10457000DFF8B480294C22F006021A601A68A6F50A
:10458000C726A6F2FC76A5F5C82542F002021A60FD
:10459000CAF80000C9F80000C8F8000030602860C0
:1045A00020604FF49870FFF7A3FD40F243434FF4AF
:1045B0008862CAF80030C9F80030C8F800203360BB
:1045C0002B6023603878BDE8F08701220D4BAA707C
:1045D0001B68C3F3152313449B02AB609AE700BF2B
:1045E000A086010008100B400000090210100B40CB
:1045F00000001A0300000909C82FFF1F18100B4004
:104600001C100B4014100B4000001B0700001A1078
:1046100000001A3700001A0628100B4014D004407E
:1046200000D0044004D0044008D00440F8B5384B12
:104630001A780AB10320F8BD5B78064603B949022F
:10464000344D354C354B36484FF6FF774FF48132B9
:104650002F6021601A60FFF779FD0028EBD1314B04
:1046600031491B681C3406F1400206F510702B68B6
:10467000284F43F0200613F4E00F2E603ED123684C
:104680001E05FCD50B6842F8403C0B6842F83C3CE8
:104690000B6842F8383C0B6842F8343C0B6842F82F
:1046A000303C0B6842F82C3C0B6842F8283C0B6805
:1046B00042F8243C0B6842F8203C0B6842F81C3C52
:1046C0000B6842F8183C0B6842F8143C0B6842F83F
:1046D000103C0B6842F80C3C0B6842F8083C0B6835
:1046E00042F8043C40328242C1D1002009490B68A3
:1046F000084A9B07FBD50D4B1360F8BD43F4E0035C
:1047000043F020033B60FFF76DFD0120EEE700BFA3
:10471000C82FFF1F30100B4008100B4004100B4037
:1047200010003A1110100B4020100B402200000125
:10473000F8B52B4B1A780AB10320F8BD5B78044614
:1047400003B94902274D284E284B29484FF6FF77D9
:104750004FF481322F6031601A60FFF7F7FC0028B8
:10476000EBD1244B24491B682E4604F500772B68B7
:104770001C4AD806FBD5336813F4E00F1AD104F1B4
:10478000400254F8043B0B60A242FAD12B68DFF8D8
:1047900054E043F010032B602B6813F4E00013D1B6
:1047A0009742E4D10F490B680E4A9B07FBD5134B88
:1047B0001360F8BD136843F4E00343F01003136083
:1047C000FFF710FD0120EDE7DEF8003043F4E003D1
:1047D00043F01003CEF80030FFF704FD0120E1E7BD
:1047E000C82FFF1F30100B4008100B4004100B4067
:1047F00000003A1810100B4020100B40120000016E
:1048000005281DD8DFE800F003030D1217080F4B31
:104810000F4A1A6001F0F4BA0C4B0E4A1A6001F00C
:10482000EFBA0A4B0C4A1A6001F0EABA074B0B4A7E
:104830001A6001F0E5BA054B094A1A6001F0E0BAC6
:10484000024B084A1A6001F0DBBA00BFD82FFF1FE5
:10485000000001B80430003801100038032000388F
:10486000010002380650013808B50121007803F034
:10487000D5F8114B1A7802B908BD104A12780021F8
:104880001970002AF8D0D30703D50D490D4B0968DC
:104890001960900703D50A490B4B49681960510705
:1048A00003D50749094B896819601307E4D5044A01
:1048B000074BD2681A6008BDDC2FFF1F1032FF1FA4
:1048C0000032FF1F00E100E004E100E008E100E049
:1048D0000CE100E0254B1A781AB10078002103F0B2
:1048E0009DB870B42249234A0C78126801251D70C6
:1048F000002C2AD072B60B78DD0707D51E4C1F4955
:10490000266809681E4D3140296021609C0707D543
:104910001C4C1A4926684968194D3140216069606C
:10492000590707D5184C154926688968144D314038
:104930002160A9601B0707D51449104B0D68DB687F
:104940000F4C2B400B60E36062B6114BD96891426B
:1049500007D0104C1C601049DA6042F080441C61A2
:1049600019600078002170BC03F058B8DC2FFF1FDD
:104970001032FF1FD82FFF1F80E100E0F031FF1F32
:104980000032FF1F84E100E088E100E08CE100E0FC
:1049900000C0024001401F0000001F80F0B4134C13
:1049A000134A236882B01746009300984FF00046E0
:1049B00080B2FF25136843F480631360D6625563A9
:1049C000D36A002BFCDABB6BDBB2FF2B0AD0236867
:1049D0000193019B9BB21B1A8B42EBDB002002B0C0
:1049E000F0BC7047012002B0F0BC70476C32FF1F72
:1049F00000C00240F8B50D464FF4967116460446C5
:104A0000FFF7CCFF284B1A684FF0004042F4806259
:104A100045F040011A60D8621A465963D36A002BE8
:104A2000FCDA214918204FF000470A6826FA00F303
:104A300042F48062DBB20A60CF624B63CB6A002B28
:104A4000FCDA083810F1080FEFD155B3082D0CBF70
:104A50008721FF21144B1A684FF0004042F4806216
:104A60001A60D8621A465963D36A002BFCDA0E4AE0
:104A7000002716464FF00045FF21136843F480637A
:104A80001360D5625163D36A002BFCDAB36BD8B2E2
:104A90001B06607000D4F8BD0137B7F5807FECD1FC
:104AA000F8BD9521D6E700BF00C002402DE9F043D4
:104AB00000239E4F027085B083703B6801930546CA
:104AC000884610460121019E02F0A8FF28780121A6
:104AD00002F0B8FF2878012102F0A0FF944A136881
:104AE00043F4805313600620FFF78AFE914B924AED
:104AF00093F800E01268B6B2BEF1000F31D072B682
:104B00001978C8070BD58D4C8D48D4F800C00068C3
:104B1000DFF844E20CEA0000CEF8000020608C07C9
:104B20000BD5884C8648D4F800C04068DFF828E2EE
:104B30000CEA00002060CEF8040048070BD5824C38
:104B40007F48D4F800C08068DFF80CE20CEA00006F
:104B50002060CEF80800090700F1A68062B693F83D
:104B600000E07A4BD968914207D0794818607949BA
:104B7000DA6042F0804018611960744A0A244FF0EC
:104B80000040FF21136843F480631360D0625163D7
:104B9000D36A002BFCDA013C14F0FF04F2D1BEF121
:104BA000000F1BD01EF0010F03D06B4A6B4B126835
:104BB0001A601EF0020F03D0674A694B52681A60F0
:104BC0001EF0040F03D0644A664B92681A601EF010
:104BD000080F03D0604A644BD2681A602846FFF77A
:104BE00079FE07E03B680293029B9B1B9BB2B3F5E7
:104BF000FA6F52D8002211462846FFF7FBFE012823
:104C000081466870EED14FF4D57208212846FFF72F
:104C1000F1FE430727D585F802904FF0000907E021
:104C20003B680393039B9B1B9BB2B3F5FA6F34D88D
:104C3000002237212846FFF7DDFE4A462921284673
:104C4000FFF7D8FE68700028EAD1AB78022B3BD082
:104C50002846FFF709FE4046FFF7D2FD0124204613
:104C600005B0BDE8F083394A042194464FF0004E68
:104C7000FF20136843F480631360C2F82CE0506394
:104C8000D36A002BFCDADCF838300139DBB211F0E2
:104C9000FF016B70EDD1AA2B11D02846FFF7E4FD80
:104CA000204605B0BDE8F08330482549D0F800E043
:104CB000C968294C0EEA01010160E1604EE7022358
:104CC000AB704FF08049B3E702463A212846FFF720
:104CD00091FE0028E1D11D4B1A684FF0004442F4C8
:104CE0008062FF201A601946DC625863CB6A174A5B
:104CF000002BFBDA936B154A03F0C003C02B04BFF3
:104D00000323AB70032116464FF00044FF201368C5
:104D100043F480631360D4625063D36A002BFCDADF
:104D2000013911F0FF01B36BF1D191E76C32FF1F34
:104D30003C8004401032FF1FD82FFF1F80E100E0AD
:104D4000F031FF1F84E100E088E100E000C0024094
:104D500001401F0000001F800032FF1F00E100E043
:104D600004E100E008E100E00CE100E08CE100E09B
:104D7000F0B4164C164A236882B017460093009987
:104D80004FF0004689B2FF25136843F48063136037
:104D9000D6625563D36A002BFCDABB6BDBB2FF2B08
:104DA00043700BD123680193019B9BB25B1AB3F54F
:104DB000967FE9DD002002B0F0BC7047A3F1FE0051
:104DC000B0FA80F0400902B0F0BC70476C32FF1FAF
:104DD00000C00240F8B58378032B0E46044618BF86
:104DE0004E021546FFF776FD324611212046FFF7A9
:104DF00001FE18B92046FFF7BBFF20B92046FFF798
:104E000033FD0020F8BD204B2049214A1A608E4610
:104E100059631A4659631E46596305F5FD70A91C6E
:104E200005F5FE77D36A13F0F00FFBD0C6F834E037
:104E3000B36B01F8013C1B1201F8023C02318F42B6
:104E4000F0D105F50075A8420DD20F4A1646D36A77
:104E500013F0F00FFBD0B36B191200F8021BA8423D
:104E600000F8013CF3D3084B0949084A1960194678
:104E70005A63CB6A044A13F0F00FFAD02046936BC2
:104E8000FFF7F2FC0120F8BD00C00240FFFF0090D8
:104E900000041F80F0B4314E33684FF0004743F4F4
:104EA000806333603D46F762344671633346511C7C
:104EB00002F20127E26A002AFCDA1A6811F8016C92
:104EC00042F480621A60DD625E63E26A002AFCDA04
:104ED0001A6811F8026B42F480628F421A60DD6238
:104EE0005E63E7D11D49CA6A1C4B002AFBDA1A68C7
:104EF0004FF0004542F48062FF241A601946DD62DB
:104F00005C63CB6A154A002BFBDA13684FF000454F
:104F100043F48063FF2413601146D5625463CB6A67
:104F20000E4A002BFBDA13684FF0004543F4806310
:104F3000FF2413601146D5625463CB6A074A002BE5
:104F4000FBDA936BDBB203F01F024370A2F10500A2
:104F5000B0FA80F04009F0BC704700BF00C00240CA
:104F600070B5044671B18378032B0D4618BF4D020E
:104F70001646FFF7AFFC2A4618212046FFF73AFDF8
:104F8000054620B12046FFF76FFC002070BD324679
:104F9000FE212046FFF77EFF0028F3D04FF4167164
:104FA0002046FFF7FBFC0028ECD02A460D212046C6
:104FB000FFF720FD0028E5D10B4B1A684FF00045A4
:104FC00042F48062FF201A601946DD625863CB6AA2
:104FD000054A002BFBDA936B13F0FF0FD2D120466A
:104FE000FFF742FC012070BD00C00240014B024AA5
:104FF0001A607047D82FFF1F0320003838B590F98A
:105000000530002B03DBBDE8384000F08BBC0446C4
:105010000121006900F0C6FCF8B1257D104B13EBAF
:1050200045151AD0A3790F4A012B9CBFA369EB61E8
:10503000E36912686B831B0CAB8232B105F1160178
:1050400005F1180090472B8B6B82637903F07F0387
:105050006371BDE8384000F065BC002038BD00BF7A
:10506000EC2FFF1FE02FFF1F10B500F108020446D0
:105070000121006A00F08AFD50B1E3693BB9637910
:10508000A268E26163F07F036371012010BD01201B
:1050900010BD00BF70B50646FFF7E6FF98B1326A53
:1050A000B568117C53691479023D8D40013B74B1A0
:1050B0001D4402E014F0FF0407D0601900F0E2FC88
:1050C000013C0028F6D1002070BD336A197CB0691C
:1050D0004FF4007202FA01F30344B361012070BD82
:1050E00082790AB90020704710B50446FFF786FFA1
:1050F00018B10023A371012010BD002010BD00BF16
:1051000070B44B1E01F10A04202203F8012FA342C0
:10511000FBD101380025072610F8014F2CB32E2CA7
:105120001ED0164A01E09C4217D012F8013B002B1A
:10513000F9D1AE421FD3A4F121025D2A1BD8A4F1FC
:105140006102192A05F1010398BF203C0D44DBB22E
:1051500098BFE4B22C701D46DEE7002070BC70479B
:105160000A2EFAD008250A26D6E70B78B3F12000DC
:1051700018BF0120F2E71846F0E700BFF84601002B
:1051800038B583793BB991F82020102A0D460446A2
:1051900003D0202A10D0002038BD022282714A8C10
:1051A000C36153018361002301206071237525626F
:1051B000A360E360236138BD03238371496AC16141
:1051C00000F11802284600F0B1FC0028EBD1E2E71C
:1051D0002DE9F04F8B4683B08179019219B1437963
:1051E000DA07064604D44FF0FF3003B0BDE8F08F75
:1051F0008369C26801989B1A984277D8019B002B5B
:1052000077D002291D46DFF8F8903C4FDFF8F48094
:10521000C2F3080A45D0306A0479013C04EA5224FA
:10522000E4B2BAF1000F58D1002C56D1002A4CD16B
:10523000F269B260416990F810E0023A02FA0EF0A9
:105240000C440119CAF500747279A542CCBFA4B20E
:105250002C4653062AD4B4F5007F27D008460021F7
:1052600000F0A0FB0028BED00AEB090E0EEB0400F4
:1052700086450BD00BF1FF32734613F8011B02F881
:10528000011F9842F9D1CEEB00008344F2682D1B38
:105290002244ADB2F26065B3B1790229C2F3080AC3
:1052A000B9D1316A496A01EB5221CBE73A689142A0
:1052B000D4D0D8F800000378FE2B10D05A46FFF760
:1052C00089FD00288FD0A344E0E706F10802B16809
:1052D00000F0F4FB002886D0306AB268AAE758468E
:1052E000FFF7A4F9B0FA80F04009EAE79BB2019316
:1052F00084E7BDF9040003B0BDE8F08F6407FF1F29
:10530000EC2FFF1FE82FFF1F38B58379012B16D92B
:10531000C368DA060C46054611D1202221462846EC
:10532000FFF756FF40B220280CD1237863B1E52B5C
:10533000F3D02E2BF1D0E37A1B07EED438BD4FF01B
:10534000FF3038BDC01738BD184638BD8379012BF2
:1053500017D930B5C36883B001220DF107010446A7
:10536000C3F34315FFF734FF012802D0002003B038
:1053700030BDE36804481F3300EB4510E36003B021
:1053800030BD0020704700BFEC2FFF1FF8B58379B8
:1053900013B182698A4201D20020F8BD022B0F4668
:1053A00005461AD007B32B6AE9681C7C4A1E04F133
:1053B00009037C1EDA40DC40A24211D9EB69AB60E4
:1053C00005F1080606E0A968286A00F077FB013CB1
:1053D0000028E1D03246002CF5D1EF600120F8BD65
:1053E0000029EBD0A41AEBE7AF60EF600120F8BD15
:1053F00083790BB1FFF702BE184670478379012B02
:1054000001D000207047F0B54579AC0783B0024663
:105410001CD585698D420C4618D3D5B12546D66872
:105420001446FFF7B3FF88B1B5B9E169206A00F00F
:1054300037FC58B1E56122E000F032FC30B16FF08A
:105440007042A168206A00F019FCC0B9002003B0C6
:10545000F0BD184603B0F0BD01AAA168206A00F0B3
:105460002DFB0028F2D0206A0F4B90F82070019994
:105470004FF6F872102F08BF13469942DCD36379B8
:10548000A279A56163F07F036371002ADED0204614
:10549000FFF7B4FD0028D9D0B5422946204628BFE1
:1054A0003146FFF773FFD2E7F8FFFF0F70B51D4BD2
:1054B00003EB4116F37A13F0110F02D012F0420FF2
:1054C0001ED1194B01751B680361738BB18A43EAC6
:1054D0000141C161F37A13F01803154604460DD15A
:1054E000F36983610123837105F00F030021637168
:1054F0006B06A160E1600FD4012070BD102B01D0BC
:10550000002070BD00F11802006A00F00FFB0028B7
:10551000F6D00423A371E7E72046BDE87040FFF70B
:105520006DBF00BFEC2FFF1F6407FF1F2DE9F04781
:1055300084B001AF06460C46104639469946FFF73F
:10554000DFFD78B30022216A316213461546A2605E
:10555000E260DFF8008108E0E52B1CD001460B2259
:10556000384609F0BBF888B3E368A2699A421DD9AE
:105570002046C3F3431AFFF7E9FE98B10378002BE6
:10558000EAD15DB9D8F8003086F814A03361037809
:1055900023B10125E8E7002DFBD1F3E709F0120361
:1055A000122B1DD0002004B0BDE8F08709F01203D3
:1055B000122BF7D1A5B9A379022BF3D02046FFF720
:1055C00069FD0028EED0214C357514E009F0300358
:1055D000302BE7D04A4651463046FFF767FFE2E7F7
:1055E0000121306900F0DEF90028DBD0347D174B53
:1055F00013EB4414D6D020220021204609F004F9F0
:1056000097E80700234603C3114923F8022B0D68CE
:10561000120C1A709DB104F10E0104F11000A8479C
:10562000238AE28963822383E28200F07BF90028E7
:10563000B8D04A46317D3046FFF738FFB3E742F62F
:1056400021034FF400622382E281EBE7EC2FFF1F7E
:10565000E02FFF1F6407FF1F10B484791CB10020E6
:105660005DF8044B70475DF8044BFFF75FBF00BF68
:1056700010B500210446FFF7C1FE08B9002010BD97
:105680000121206900F08EF90028F7D0237D064A19
:105690005B01DA42F2D0E52098540021A171BDE807
:1056A000104000F03FB900BFEC2FFF1F30B58BB0AA
:1056B00000240A46084D8DF808400146022301A83F
:1056C0008DF80A400195FFF731FF10B101A8FFF7EF
:1056D000CFFF0BB030BD00BFF04601002DE9F04F09
:1056E0008B46817985B001298046019206D001233D
:1056F00088F80430002005B0BDE8F08F42799107AA
:10570000F5D553070AD5D8F80C40D8F818108C42B4
:1057100000F0CF80FFF73AFE0028E8D0019BD8F8D0
:105720000C40002B4ED0DFF8DC91DFF8DCA1019FAC
:10573000D8F820000579013D05EA542515F0FF054C
:10574000C4F308044BD1002C49D1D8F80810002923
:1057500040F08980D8F81C20002A00F09880C8F812
:105760000820C4F50076B6B2BE423FD890F810E0EB
:105770004169023A02FA0EF20D44B6F5007F154473
:105780003BD1DAF80020954204BF4FF0FF32CAF84F
:105790000020584A10680278FE2A294600F08280CC
:1057A0005A46FFF7DDFB0028A1D00BF5007B4FF434
:1057B0000074D8F80C20BF1B1444BFB2C8F80C40CA
:1057C000002FB5D1D8F81830A34277D298F8052029
:1057D000C8F8184042F0800288F8052079E0C4F546
:1057E0000076B6B2BE42D8F80820BFD9067C41691F
:1057F000023AB2400D4415443E462CB9D8F80C107C
:10580000D8F8182091421BD22846012100F0CAF88E
:1058100000283FF46CAF4C4404EB060E744520D0D6
:105820000BF1FF31621E0EF1FF3511F8010F02F886
:10583000010F9542F9D1C4EB0E0EF3443446B8E79C
:1058400000F070F800283FF452AF2B49CAF800501E
:105850000A784C4404EB060E42F0010274450A70CB
:10586000DED13446A5E703AA00F028F900283FF46A
:1058700042AFD8F82000214B90F82060039A4FF6F1
:10588000F871102E18BF19468A42FFF468AF4046DF
:10589000FFF7EAFB00283FF42AAFD8F82000D8F839
:1058A00008205EE75846FEF743FFB0FA80F0400953
:1058B00079E7019B002B7FF436AF0AE0104B98F894
:1058C00005201B682BB1019B1BB142F0800288F8B8
:1058D000052012070AD598F80630002B3FF407AFD1
:1058E0004046FFF78BFB00283FF401AF019805B05D
:1058F000BDE8F08FE82FFF1FEC31FF1FF8FFFF0F0F
:10590000E02FFF1FEC2FFF1F6407FF1F00B583B0C0
:1059100002AB012203F8011D1946FFF7DFFE03B0B9
:105920005DF804FB70B51A4C23780BB9012070BDEB
:10593000184D194B286819680378FE2B17D0174AA1
:10594000FFF70EFB88B1164E316819B9002323709A
:10595000012070BD28680378FE2B0FD00F4AFFF797
:10596000FFFA10B100233360F0E7002070BD0B4850
:10597000FEF7DEFEB0FA80F04009E3E70748FEF7E5
:10598000D7FEB0FA80F040090028EBD1EDE700BF68
:10599000EC31FF1FE82FFF1F6407FF1FEC2FFF1FD5
:1059A000E42FFF1F70B5124D2B6883420E4611D0B5
:1059B0000446FFF7B7FF08B9002070BD0D4B18680B
:1059C0000378FE2B0CD00C4A2146FFF703FA00287F
:1059D000F2D02C60094B197831431970012070BD49
:1059E00021460548FEF722FEB0FA80F04009EEE7B6
:1059F0006407FF1FE82FFF1FEC2FFF1FEC31FF1F75
:105A0000F8B590F82030C469102B1A4B05460E46A5
:105A100017461B6816D004EBD1149C4216D106F031
:105A20007F06154A42F826701449287E0A78012814
:105A300042F001020A7018D9A968114A0B44136098
:105A40000120F8BD04EB11249C4208D0002120461F
:105A5000FFF7A8FF50B195F82030102B07D1F6B210
:105A6000054A234622F81670DEE70120F8BD2346DA
:105A7000D5E700BF6407FF1FEC2FFF1FEC31FF1FAE
:105A8000E42FFF1F10B50446FFF74CFF78B1084B19
:105A9000002103F5007203F8011F9342FBD1054A70
:105AA000054913780C6043F001031370012010BD09
:105AB000EB2FFF1FEC31FF1F6407FF1FC36801338B
:105AC0008B4218D370B590F82030102B154B04463C
:105AD00016460D46C0691B680FD000EBD1109842E6
